:020000040800F2
:1000000078340020AD020008572B00088B1D000833
:10001000552B00086D0F0008BF2F000800000000DE
:10002000000000000000000000000000ED010008DA
:10003000950F00080000000049020008392D000853
:10004000C7020008C7020008C7020008C70200086C
:10005000C7020008C7020008C7020008C70200085C
:10006000C7020008C7020008C70200086F0F000897
:10007000710F0008730F0008C7020008750F000811
:10008000C702000800000000C7020008C7020008FD
:10009000C7020008C7020008C7020008C70200081C
:1000A000C7020008F52E0008C7020008C7020008B2
:1000B000C7020008C7020008C7020008C7020008FC
:1000C000C7020008C7020008C7020008C7020008EC
:1000D000C7020008B72F0008C7020008BB2F00089E
:1000E000C7020008C7020008C7020008C7020008CC
:1000F000C7020008C7020008C7020008000000008D
:1001000000000000C702000800000000C70200084D
:10011000B52F000800000000012F0008C7020008EA
:10012000C7020008C7020008C7020008C70200088B
:10013000C70200080000000000000000C70200081D
:10014000C7020008C702000800000000000000000D
:10015000000000000000000000000000000000009F
:10016000000000000000000000000000C7020008BE
:10017000C7020008000000000000000000000000AE
:1001800000000000C702000800000000000000009E
:10019000000000000000000000000000000000005F
:1001A0000000000000000000C702000875230008DE
:1001B000C7020008C7020008C702000800000000CC
:1001C00000000000C702000800000000000000005E
:1001D000C7020008C7020008DFF80CD000F0A6FE36
:1001E000004800477D500008783400202C4B1968E7
:1001F0000868B0E8F04F80F30988BFF36F8F4FF0C5
:10020000000080F311887047000000000848006873
:10021000006880F308884FF0000080F3148862B60D
:1002200061B6BFF34F8FBFF36F8F00DF00BF00BF1A
:1002300008ED00E0DFF80C00016841F47001016096
:10024000704700BF88ED00E0EFF30980BFF36F8FC8
:10025000134B1A681EF0100F08BF20ED108A20E91A
:10026000F04F106009B44FF0500080F31188BFF3D5
:100270004F8FBFF36F8F06F09DF94FF0000080F3B2
:10028000118809BC19680868B0E8F04F1EF0100F1B
:1002900008BFB0EC108A80F30988BFF36F8F7047F6
:1002A0006C000020EFF3058070470000064880478F
:1002B00006480047FEE7FEE7FEE7FEE7FEE7FEE74B
:1002C000FEE7FEE7FEE7FEE7D92E0008D9010008A9
:1002D0002DE9F05F0546002092469B46884606467B
:1002E000814640241BE0284641464746224600F00E
:1002F00086FC53465A46C01A914110D311461846FF
:10030000224600F06DFC2D1A67EB01084F4622468D
:100310000120002100F064FC17EB00094E41201E73
:10032000A4F10104DFDC484631462A464346BDE8D5
:10033000F09F0000004870479476000810B504460E
:10034000FFF7F8FF0068005D00F0010010BD40EA13
:1003500001039B0703D009E008C9121F08C0042A43
:10036000FAD203E011F8013B00F8013B521EF9D22A
:100370007047D2B201E000F8012B491EFBD2704752
:100380000022F6E710B513460A4604461946FFF761
:10039000F0FF204610BD30B505462A460B4612F840
:1003A000010B13F8014B08B1A042F8D01CB1002892
:1003B00002D06D1CF1E7284630BD10B5044604E0BC
:1003C0000B7800F8013B03B1491C521EF8D22046BD
:1003D00010BDCAB2401E10F8011F8A4202D0002987
:1003E000F9D100207047421C10F8011B0029FBD1F5
:1003F000801A704710B5002200E0521C835C8C5CB0
:10040000A34201D1002BF8D1D8B2E1B2401A10BDFD
:10041000034611F8012B00F8012B002AF9D11846E8
:10042000704700002DE9FF4F087883B09946FF28F8
:1004300005D0491C2D2804D00024002008E000200D
:100440000BE00124F9E700EB800003EB4000491CBE
:100450000B78FF2BF7D104B14042002302931478AC
:1004600019461D462D2C01D02B2C04D1521C2D2CAD
:1004700013D000240294AA461478FF2C0FD00A252A
:10048000A3FB057801FB05814FF0000C03FB0C1169
:10049000521CE3194AEB0101EEE70124EAE781442B
:1004A00053EA010002D019F5C87F06DA039800214B
:1004B000C0E9001107B0BDE8F08F0025AE4E2F4611
:1004C000DFF8B882184600F00DFDCDE90001B9F162
:1004D000000002DAC9F1000400E004460023A74A44
:1004E0001AEB030B42EB045A12E0E00707D02A464E
:1004F00033463846414600F024FA074688462A46E5
:1005000033461046194600F01CFA05460E466410A4
:10051000002CEAD1DDE90001B9F1000F5A4653463B
:1005200006DA00F080FA3A46434600F07CFA05E02D
:1005300000F007FA3A46434600F003FA029A0AB17D
:1005400081F00041039AC2E90001B3E72DE9FF4FB2
:100550001F468DB0D7E901464FF0FF382E204546A3
:100560004FF000090B90B9696D1C0E988847396AE5
:10057000824688470028F6D1BAF1FF3F0AD024F41A
:10058000D064002E11DDBAF12B0F08D0BAF12D0F77
:100590000BD102E0404611B08DE744F48064B969A4
:1005A0006D1C0E9888478246761E6946600501D507
:1005B0002D2000E02B208DF8000001F1010B0DF142
:1005C000200809E0B9696D1C0E98884782460F988B
:1005D00044F40074761E0560002E02DDBAF1300F7F
:1005E000F0D00B998A453ED144F0800406E00F9983
:1005F000681CA9F1010944F400740860B9696D1C14
:10060000761E0E98884782463028F0D02BE00B9952
:100610008A4505D1200603D444F08004761E18E0F4
:10062000504602F04BFE08B30DF11301761E44F460
:1006300000748B4508D2AAF130000BF8010B20069C
:1006400007D5A9F1010003E0200602D409F1010059
:100650008146A00502D50F99681C0860B9696D1C18
:100660000E9888478246002ED1DC53E0002E51DDE3
:10067000BAF1650F02D0BAF1450F4BD1A00549D5AB
:10068000B9696D1C24F44074761E0E988847824622
:10069000002E0CDD2B2804D0BAF12D0F07D144F425
:1006A0008074B9696D1C0E9888478246761EE005F5
:1006B00001D52D2100E02B2108F8011BCDF82C805D
:1006C00021E00DF12901761E44F4007488450CD216
:1006D000AAF1300010F0FF0088F8000002D10B9959
:1006E000884509D908F1010806E0E00501D524484C
:1006F00001E042F20F708146B9696D1C0E9888477F
:1007000082460F980560002E04DD504602F0D6FDAB
:100710000028D6D1F9690E988847FF208BF8000091
:1007200088F800000020069007904B466A4608A90A
:1007300006A8FFF777FEA00502D46FF001002AE7B4
:1007400014F0240F0AD0E00714D1DDE9061238684E
:10075000031D3B600068C0E900120BE0DDE9060103
:1007600000F00CFA0146E00704D13868021D3A6037
:100770000068016028460EE7000014400000F03FCA
:10078000F1D8FFFF2DE9F04791460F468046044619
:10079000002614F8015B2DB1FFF7CCFD0068405D29
:1007A000C007F6D12B2D02D02D2D18D0641E4A463D
:1007B0003946204600F065FA27B13968A14201D1D7
:1007C000C7F8008071054FF002040BD540420028A5
:1007D00003DD02F073FC0460A007BDE8F08746F477
:1007E0008066E4E70028F8DA02F068FC04606FF045
:1007F0000040F2E72DE9FE4F804681EA0300C00F7A
:100800000C46009021F0004123F00045B8EB0200B7
:10081000A94105D24046214690461C460B46024659
:1008200023F00040104347D0270DC7F30A00C3F35D
:100830000A510290401A019040286BDAC3F313006A
:1008400040F4801B0098924620B10023D2EB030AAB
:1008500063EB0B0B01985946C0F14002504600F083
:10086000BFF906460D4650465946019A00F0D7F9A1
:1008700010EB08006141002487EA115284EAE77313
:100880001A4340D0009A62B3019A012A4FEA0752F4
:1008900015DC001B61EB02014FF0004202EA075237
:1008A000CDE90042001C41F5801132462B4600F094
:1008B000CBFA03B0BDE8F08F40462146F9E7001BB4
:1008C00061EB0201001C41F5801300185B41201808
:1008D000A2F5001747EB030140EAD570B6196D4148
:1008E00011E06D084FEA360645EAC0754FEA075237
:1008F000001B61EB0201001C41F5801149084FEA21
:1009000030000019514132462B4603B0BDE8F04F8C
:1009100000F08BBA0098012240000023D0EB0202C5
:1009200063EBE073009821464FEAE074B8EB0000F7
:1009300061EB0401E9E783F000435BE781F00041EC
:1009400058E72DE9FE4F81EA030404F0004421F04A
:10095000004100944FF0000B23F0004350EA0104E3
:100960005ED052EA03045BD0C3F30A54C1F30A55C4
:100970002C44A4F2F3340194A0FB0254C1F31301FC
:1009800041F48011C3F3130343F4801301FB0244C9
:1009900000FB034E840A970A44EA815447EA8357CE
:1009A000A4FB076802958D0A05FB07854FEA932C87
:1009B00004FB0C542705029D4FEA065847EA1637F8
:1009C000B5EB08056EEB070C870E920E47EA811710
:1009D00042EA8312A7FB0201B6EB0B0164EB0004B1
:1009E0002B0D43EA0C335E1844EB1C50DA4651469B
:1009F000E7FB0201C5F313044FEA0B3343EA145338
:100A00004FEA0432019C43EA0603A4F10C04029469
:100A1000009CCDE900B400F017FA03B0BDE8F08FF8
:100A200000200146F9E72DE9F04D81EA030404F0C6
:100A3000004B21F0004514464FF0000A23F000411E
:100A400050EA050220D054EA01021DD0C5F30A572E
:100A50000246C5F31303C1F31300C1F30A5640F471
:100A6000801543F48013A7EB0608101BD64608F246
:100A7000FD3873EB050002D308F1010801E092187C
:100A80005B41B8F1000F03DA00200146BDE8F08DAC
:100A900000204FF48011064684460EE0171B73EBCE
:100AA000050705D3121B63EB050306434CEA010C53
:100AB00049084FEA300092185B4150EA0107EDD136
:100AC00052EA030012D082EA040083EA05010843D7
:100AD00005D0101BAB4106D20122002306E0002204
:100AE0004FF0004302E06FF0010253101AEB0600D2
:100AF0004CEB085110EB0A0041EB0B01BDE8F04D47
:100B000000F093B90EB5C10F80EAE0700844CA073F
:100B1000002140F233438DE80E000A460B4600F0F8
:100B200093F903B000BD00F0004230F000400AD05D
:100B3000C10D01F56071C0F3160042EA0151C2080F
:100B400040071143704700200146704730B5041E2E
:100B500071F1000404DB4FF00044404264EB0101FA
:100B6000141E73F1000405DB1C464FF00043524293
:100B700063EB0403994208BF904230BD01F000438B
:100B800030B421F0004150EA010206D00A0DA2F56E
:100B90006072C1F31301002A02DC30BC00207047F0
:100BA000440F44EAC104C100E01830BC00EBC2505D
:100BB00000F004B930B50B46014600202022012484
:100BC00009E021FA02F59D4205D303FA02F5491B1B
:100BD00004FA02F52844151EA2F10102F1DC30BD31
:100BE000202A04DB203A00FA02F1002070479140ED
:100BF000C2F1200320FA03F3194390407047202AE2
:100C000004DB203A21FA02F00021704721FA02F3B6
:100C1000D040C2F120029140084319467047202A73
:100C200006DBCB17203A41FA02F043EAE07306E014
:100C300041FA02F3D040C2F1200291400843194624
:100C40007047426842B1016811F8013B23B1521E5E
:100C5000C0E90012184670470121C160881E704724
:100C600042685AB1C368016843B983688B4205D0B2
:100C7000491E521CC0E90012002070474FF0FF309F
:100C800070472DE9F05F82460078002715468B46B5
:100C90000AF10104B946302801D09DB113E014F8DF
:100CA000010B0127782803D0582801D045B10AE06C
:100CB0000DB1102D07D10027102514F8010B02E00B
:100CC000082500E00A250026B0460EE005FB0800D6
:100CD00005FB06F1012701EB10461FFA80F8B6F577
:100CE000803F00D3B94614F8010B294600F030F9D3
:100CF0000028EBDABBF1000F05D00FB1641E00E055
:100D00005446CBF80040B9F1000F06D002F0D6F9F6
:100D100002210160C81EBDE8F09F48EA0640FAE7DC
:100D20000FB4002300B589B00CA900910B996FF0A6
:100D30000042CB601E4B06931E4B07930423CDE964
:100D400001321D4A089202466B460020FFF7FEFB67
:100D500009B05DF814FB70B586B006464FF0FF3061
:100D60000091CDE90101002015460C460490324661
:100D7000694604A8FFF7D4FF02460498211825B15C
:100D800008B1084600E020462860049800280DD0ED
:100D9000002A02DD0098884208D0081B0094CDE9A3
:100DA00001043246694604A8FFF7BAFF06B070BDD9
:100DB000430C0008610C00083D0300080029A8BF8F
:100DC0007047401C490008BF20F00100704710B474
:100DD000B0FA80FC00FA0CF050EA010404BF10BC29
:100DE000704749B1CCF1200421FA04F411FA0CF156
:100DF00018BF012121430843A3EB0C01CB1D4FEA8F
:100E000000614FEA102042BF002010BC704700EB89
:100E1000C35010440029A4BF10BC7047401C4900B7
:100E200008BF20F0010010BC704710B5141E73F10C
:100E3000000408DA401C41F1000192185B411A439A
:100E400001D120F0010010BD2DE9F04D92469B46E6
:100E500011B1B1FA81F202E0B0FA80F2203290468C
:100E6000FFF7BEFE04460F4640EA0A0041EA0B01C6
:100E700053465A46084313D0114653EA010019D08D
:100E8000C8F140025046FFF7BAFE05460E465046EE
:100E900059464246FFF7A4FE084305D0012004E06E
:100EA00020463946BDE8F08D0020054346EAE0764D
:100EB0002C4337430A986305E40AA0EB080000229C
:100EC000FD0A44EA47540A3002D500200146E9E70A
:100ED000010510196941DDE9084500196941BDE8BE
:100EE000F04DA2E70EB540F2334202920022CDE966
:100EF00000221346FFF7A8FF03B000BDC1F30A525A
:100F0000C1F3130140F2FF3341F480119A4202DA37
:100F100000200146704740F233439A42A2F2334226
:100F200002DC5242FFF76BBEFFF75ABE064C074D7C
:100F300006E0E06840F0010394E8070098471034A9
:100F4000AC42F6D3FFF74CF988780008A87800087F
:100F50003A2800D2303820F02002412A01D3A2F1F1
:100F60003700884201D34FF0FF307047FEE77047EB
:100F70007047704701A002F023B80000696E20742A
:100F800068652035202D2D2D2D2D2D2D2D2D2D2D30
:100F90002D0000007047000001A002F011B8000011
:100FA0002121216572726F722068616E646C652107
:100FB00021210A00124A117F1248012901D0032978
:100FC0000BD1036843F400630360036823F40063F8
:100FD0000360036843F400730360022901D003290E
:100FE0000BD1016841F480510160016821F4805106
:100FF0000160016841F48061016000201077704752
:101000004800002000200240C107054803D0416984
:1010100041F004014161416941F48031416170470F
:101020000020024008494A69C0B222F4FC7242EA38
:10103000C0004861486940F002004861486940F4D6
:10104000803048617047000000200240054910B51B
:101050004C6944F001044C610260BFF36F8F436040
:1010600010BD000000200240094A10B55469402319
:1010700044F480245461EFF3108272B610C95B1EF1
:1010800010C013F0FF03F9D182F3108810BD0000E7
:101090000020024070B5064600F022FB0546134CC6
:1010A00007E000BF00F01CFB401BB04201D9032049
:1010B00070BD2069C003F5D420694CF2FA310840B4
:1010C0000CD00B494A6802434A60810F01D0A169E4
:1010D000A161810000D02061012070BD2069C0079E
:1010E00001D001202061002070BD000000200240DE
:1010F0004800002070B5044600F0F2FA0546601C76
:1011000002D004484068044400F0EAFA401BA042C0
:10111000FAD370BD3C0000202DE9F041040006D058
:10112000DFF8E88194F85C00002518B107E00120A1
:10113000BDE8F08184F85D50204600F0EFF82068AB
:10114000816921F01001816100F0CAFA0646032787
:1011500005E000BF00F0C4FA801B0A2811D82068FF
:1011600080690007F6D42068816941F0010181613E
:1011700000F0B6FA06460BE000F0B2FA801B0A282F
:1011800006D9206E40F00100206684F85C70CEE73E
:1011900020688069C007EFD02068816941F00201B2
:1011A00081612168414502D1594960680860207C0D
:1011B00001282068816937D041F040018161607C5D
:1011C00001282068816932D021F480418161A07CAE
:1011D0000128206881692DD041F480518161206807
:1011E0008169A26821F4407111438161206881699D
:1011F00021F0A40181612068016921F010010161E1
:10120000E068012819D010B302281BD0206881693A
:1012100041F0800181612068016941F010010161A4
:10122000E06803280ED012E021F04001C6E741F447
:101230008041CBE721F48051D0E72068816941F0FB
:10124000040103E02068816941F020018161207E72
:10125000E26940066FF0FF0101EB0222A0F100708D
:101260001043226AA38A521E10430A0202EB034370
:1012700018432368D861A068B0F5407F10D1D4E945
:101280000A0301EB0321401E0843216B131303EBF8
:1012900001110843A18C02EB014108432168C86099
:1012A000206850F8C01FE26B1143016019482064A8
:1012B000216851F8802FA38E22F4F81242EA0342EB
:1012C0000A60144970316164216851F8802F94F8E4
:1012D000383022F0706242EA03620A600D49B03190
:1012E000A1640D49E1640C49D83121650A49F03106
:1012F000616500F5547120C08842FCD3A565256660
:10130000012084F85C00002012E700000064004027
:101310000065004000A4004088A5004010B586B0DC
:10132000044614216846FFF72BF8124920688842CA
:101330001ED11148816D41F000718165816D01F010
:1013400000710591C16C41F00101C164C06C694636
:1013500000F0010005904FF4C05000900220019071
:1013600000200290039009200490C00600F0D4F8F9
:1013700006B010BD00640040001002402DE9F05F8F
:10138000054633488946017801290CD0012780465B
:1013900007704FF47A7B5846FFF77CFE06004FF04B
:1013A000000A03D04FE00220BDE8F09F51464046BE
:1013B000C8F804A0274C226892050ED5216821F4B4
:1013C000007121602168490505D5216821F48061FB
:1013D0002160032109E0077708E02268520504D55F
:1013E000216821F4806121600221017728680128A9
:1013F00005D04FF0FF31C9F80010AF681CE06868F5
:10140000FFF702FE5846FFF745FE0646606920F0EA
:101410000400606115E038466968FFF703FE58462E
:10142000FFF738FE0600606920F4FD70606102D0AD
:10143000C9F8007005E07F1CD5E902010844B842F4
:10144000E9D8FFF7B7FD88F800A03046ACE7000008
:101450004800002000200240054901204A6942F06E
:1014600000424A614969002900DA00207047000003
:10147000002002402DE9F0471B4D0446164628780F
:1014800098468A46012809D0012028704FF47A79BD
:101490004846FFF7FFFD002718B119E00220BDE81C
:1014A000F0876F6024B1012C09D0022C07D00CE02A
:1014B000324643465046FFF7C9FD01240CE0314651
:1014C0005046FFF7D1FD022C04D04846FFF7E2FD5D
:1014D0002F70E4E74FF480244846FFF7DBFD034913
:1014E0004A69A2434A61F3E7480000200020024015
:1014F000064900204A69002A07DA054A8A60054A37
:101500008A604969002900DA012070470020024002
:1015100023016745AB89EFCD2DE9FC4FDFF8A0A192
:10152000002301250AF1040B03244FF00F0C0BF1EB
:10153000040EBDE005FA03F632406FD04F68012F6C
:1015400005D0022F03D0112F01D0122F17D1D0F8C0
:1015500008905F0004FA07F829EA08090097D1F813
:101560000C8008FA07F848EA0908C0F808804768BC
:10157000B7430E79C6F300169E403E434660C668E8
:101580004FEA430804FA08F7BE4301978F6807FA49
:1015900008F73743C7604E68022E01D0122E13D1D0
:1015A000DE0800EB86060096366A5F07FF0E0CFA2F
:1015B00007F926EA0906D1F8109009FA07F949EA6D
:1015C0000609009EC6F820900668019FBE430F7969
:1015D00007F0030707FA08F7374307604E68F6007D
:1015E00065D5384E376E47F001073766366E23F003
:1015F000030706F001060096334E3E44B146B66836
:101600009F074FEA17780CFA08F7BE43B0F1904FE6
:1016100005D02E4FB84204D1012717E047E000273C
:1016200014E02B4FB84201D102270FE0294FB842F6
:1016300001D103270AE0284FB84201D1042705E071
:10164000264FB84201D1052700E0062707FA08F720
:101650003743C9F80870DAF800605746D1F80480BB
:1016600096435FEAC83800D516433E60DBF8006059
:101670005F46D1F8048096435FEA883800D5164368
:101680003E60DEF800607746D1F8048096435FEA5A
:10169000C82800D516433E60094F0C373E68D1F884
:1016A000048096435FEA882800D516433E605B1CA1
:1016B0000A6832FA03F67FF43DAFBDE8FC8F000004
:1016C00000040140001002400000014000040048F6
:1016D00000080048000C00480010004800140048B2
:1016E00001488068704700003C0000200248816883
:1016F00042681144816070473C00002010B500240E
:10170000032000F095F8002000F008F808B101244B
:1017100001E000F047F8204610BD000030B5054656
:101720001B4887B0016E41F400610166006E06A996
:1017300000F40060009001A800F094F800F0B2F806
:101740001449154AB0FBF1F11448491E026041608A
:1017500040F2E7320021C0E90321816000F07DF909
:10176000040012D10D4800F0C7F904000DD1192072
:1017700000F030F8102D07D200222946192000F081
:1017800037F80748056000E0012407B0204630BD67
:101790000010024040420F00002C01402C0E00209F
:1017A0003C0000200A4882B0016E41F00101016650
:1017B000016E01F001010091816D41F08051816560
:1017C000806D00F08050009002B000F043B800003F
:1017D00000100240002809DB00F01F0201219140A7
:1017E0004009800000F1E020C0F8001170470000BF
:1017F000F0B40E4B1B680C46C3F30223C3F107057C
:10180000042D00D90425191D072901D2002300E069
:10181000DB1E012606FA05F1491E214099409E4033
:10182000761E16403143F0BC01F038BC0CED00E0F0
:10183000064900F0070208684FF6FF03184040EA27
:101840000220034A10430860704700000CED00E0DE
:101850000000FA050248816841F4804181607047C8
:10186000007000400F2202600C4A936803F00303EB
:101870004360936803F0F0038360936803F4E063CC
:10188000C36092684FF4E06303EAD2020261044845
:10189000006800F00F000860704700000010024070
:1018A000002002400548064900688968054AC1F3DE
:1018B000C221515C01F01F01C84070476800002040
:1018C000001002400876000870B504004FF00100D7
:1018D0003ED094F8250028B9002084F82400204642
:1018E00000F03CF8022084F825001A4ECA2030602F
:1018F00053203060204601F0CDF910BB154D0C3D52
:10190000286815490840286028686168A26908436A
:1019100021691143084328602189E06840EA0140B9
:101920000C4914390860204601F0DAF948B9D4E9C5
:101930000721114362692B6823F060431A43114366
:101940002960FF213160002802D1012184F825108F
:1019500070BD000024280040BFFF8FFB00680549D0
:10196000884205D1044850F8901F41F400410160BD
:1019700070470000002800400010024070B50B4D79
:10198000286860F0A0002860FFF7AAFE04464FF424
:101990007A7606E0FFF7A4FE001BB04201D90320CF
:1019A00070BD28688006F5D5002070BD0C28004069
:1019B000704770477047704770477047F0B590F8B0
:1019C0003C20012A3AD0012580F83C50022280F8C0
:1019D0003D2003685A689C68194E1A4FB34201D0E3
:1019E000BB4204D122F4700C4A6842EA0C02DFF8D0
:1019F00058C002EA0C02D1F800C04CEA020CC3F84D
:101A000004C00268B2420DD0B2F1804F0AD00F4B31
:101A10009A4207D00E4B9A4204D0BA4202D00D4BE4
:101A20009A4204D1896824F080031943916080F8B8
:101A30003D50002180F83C100846F0BD0220F0BD6A
:101A4000002C0140003401408FFFFFFD00040040E6
:101A50000008004000400140704710B5040003D06A
:101A600094F83D0010B107E0012010BD002084F87B
:101A70003C00204600F022F8022084F83D00211DA1
:101A8000206801F03FFA012084F8480084F83E0005
:101A900084F83F0084F8400084F8410084F8420054
:101AA00084F8430084F8440084F8450084F8460034
:101AB00084F8470084F83D00002010BD08B5006898
:101AC0000B49884212D10B48816D41F010018165AC
:101AD000806D002200F01000009011463620FFF7C4
:101AE00087FEBDE808403620FFF774BE08BD000041
:101AF000001000400010024090F83D10012901D074
:101B000001207047022180F83D100168CA6842F048
:101B10000102CA600068104988420ED0B0F1804FBF
:101B20000BD00E49884208D00D49884205D00D4996
:101B3000884202D00C49884207D181680B4A114083
:101B4000062906D0B1F5803F03D0016841F00101BC
:101B50000160002070470000002C0140000400409C
:101B6000000800400034014000400140070001002F
:101B7000704770B50446006801694FF00005C9431D
:101B8000890715D4C168C943890711D4E91E0161C9
:101B900001202077206880698007204602D0FFF767
:101BA000E7FF04E000F0E3F8204600F0E1F82577D5
:101BB00020680169C943490717D4C168C943490767
:101BC00013D46FF00401016102202077206880693E
:101BD00010F4407F204602D0FFF7CAFF04E000F077
:101BE000C6F8204600F0C4F8257720680169C9438B
:101BF000090716D4C168C943090712D46FF0080158
:101C00000161042020772068C0698007204602D047
:101C1000FFF7AEFF04E000F0AAF8204600F0A8F8B5
:101C2000257720680169C943C90617D4C168C9432B
:101C3000C90613D46FF010010161082020772068D5
:101C4000C06910F4407F204602D0FFF791FF04E006
:101C500000F08DF8204600F08BF8257720680169A8
:101C6000C943C90708D1C168C943C90704D1891E3E
:101C70000161204600F07EF820680169C943090629
:101C800009D4C168C943090605D46FF08001016118
:101C90002046FFF78EFE20680169C943C90509D4B3
:101CA000C168C943090605D46FF4807101612046FB
:101CB000FFF77EFE20680169C943490609D4C1685F
:101CC000C943490605D46FF040010161204600F088
:101CD0005BF820680169C943890609D4C168C94312
:101CE000890605D46FF0200101612046FFF762FEEE
:101CF00020680169C943C90209D4C168C943C9023E
:101D000005D46FF4801101612046FFF755FE20686D
:101D10000169C943890209D4C168C943890205D44C
:101D20006FF4001101612046FFF745FE206801694C
:101D3000C943490209D4C168C943490205D46FF4B3
:101D4000800101612046FFF738FE20680169C94320
:101D500009020BD4C168C943090207D46FF400011A
:101D600001612046BDE87040FFF776BE70BD704748
:101D70007047000000680349884201D1FFF7B6BCF4
:101D800070470000002C01407047FEE7044908B589
:101D90008A6C02438A64896C0140009108BD00008E
:101DA00000100240044908B5CA6C0243CA64C96CF9
:101DB0000140009108BD000000100240044908B530
:101DC0008A6D02438A65896D0140009108BD00005B
:101DD00000100240034A515C425822F00102425076
:101DE00070470000A8750008034A515C425842F051
:101DF0000102425070470000A8750008024A001D09
:101E0000515C085880B27047A8750008034B595CB4
:101E1000435823F44053134343507047A8750008B8
:101E2000044B001D595C0B586FF30F0313430B5009
:101E300070470000A8750008044B10B5595C435862
:101E400044F21004A3431343435010BDA875000887
:101E5000024B0C30595C0A5070470000A87500080E
:101E6000034B595C435823F080031343435070479E
:101E7000A8750008034B595C435823F4406313438F
:101E800043507047A8750008034B595C435823F032
:101E90002003134343507047A8750008024B0830D5
:101EA000595C0A5070470000A8750008034B595C44
:101EB000435823F04003134343507047A87500086C
:101EC000074B83EA902001EBC00081009802084490
:101ED000D0F8001821F0FF011143C0F80018704736
:101EE00080001000034B595C435823F440731343A4
:101EF00043507047A8750008F0B50A680F2692FA9B
:101F0000A2F2B2FA82F303248AE001259D402A401E
:101F10007ED04D68012D01D0022D20D18D688768BB
:101F200092FAA2FCBCFA8CFC4FEA4C0E04FA0EFCAE
:101F300027EA0C0792FAA2FCBCFA8CFC4FEA4C0C84
:101F400005FA0CF52F438760CF680D68D0F804C000
:101F50002CEA050C7D434CEA050CC0F804C00F695F
:101F6000D0F80CC092FAA2F5B5FA85F54FEA450E05
:101F700004FA0EF52CEA050C92FAA2F5B5FA85F5ED
:101F80006D00AF404CEA070CC0F80CC04D68022D44
:101F90002FD1FF2A15D8D1F814C0056A92FAA2F7FA
:101FA000B7FA87F7BF0006FA07F7BD4392FAA2F720
:101FB000B7FA87F7BF000CFA07FC45EA0C05056283
:101FC00017E0D1F814E0476A150A95FAA5FCBCFAA7
:101FD0008CFC4FEA8C0C06FA0CFC95FAA5F5B5FAC8
:101FE00085F5AD0027EA0C070EFA05FE47EA0E0755
:101FF00047624D68076892FAA2FCBCFA8CFC4FEA73
:102000004C0C04FA0CFE27EA0E0792FAA2F200E04A
:1020100005E0B2FA82F2520095402F4307605B1C44
:102020000A6832FA03F57FF470AF0020F0BD0000BB
:102030002DE9F041044600680D46012710F0010F1C
:102040003ED12969A8682268084369691E4B1A4075
:10205000114308432060E868616821F4405101435E
:102060006160A869A16821F440710143A1604FF447
:10207000406000F02DF8E0B16A68D2B129881646B8
:10208000124A002789B2B84632F811203B46394639
:10209000FEF71EF9090241EA1061030270081818E0
:1020A00041EB080132460023FEF712F9C0F313009A
:1020B000E0602888E16A80B221F00F010143E1620B
:1020C0003846BDE8F0810000F3E9FFEFAE75000887
:1020D000124910B5D1F8881000240140B1F5806F85
:1020E0000CD0B1F5006F0DD0B1F5406F0FD000F0FE
:1020F00095FD00F063FD00F071FD01E000F08EFD44
:10210000044609E000F096F830B1054C04E000F018
:1021100099F808B14FF40044204610BD0010024069
:102120000024F40010B50024C02823D11248D0F8B0
:10213000880000F0C00040F440004038B0F5400096
:102140000AD040280CD080280FD000F067FD00F0A6
:1021500035FD00F043FD01E000F060FD044609E0BC
:1021600000F068F830B1054C04E000F06BF808B1FD
:102170004FF40044204610BD001002400024F4003B
:1021800070B5002429492A4D4FF40046032804D095
:102190000C281AD030282FD040E0D1F888006FF4F6
:1021A000403100F0030040F4403040180AD00128CC
:1021B00036D002282ED000F031FD00F0FFFC00F0F8
:1021C0001DFD17E000F02AFD14E0D1F8880000F0B2
:1021D0000C0040F44020001FB0F54020F2D004284D
:1021E0001ED0082816D000BF00F018FD00F0E6FC55
:1021F00000F0F4FC044611E0D1F8880000F0300053
:1022000040F440101038B0F54010DBD0102807D053
:102210002028E9D100F016F800B13446204670BD00
:1022200000F008F80028F9D02C46F7E7001002402B
:102230000024F40002480068C0F3802070470000CA
:10224000001002400248D0F89000C0F340007047F0
:102250000010024003498A6822F0F00202438A60BB
:102260007047000000100240044951F8882F22EA0C
:10227000104280B202430A60704700000010024022
:102280000149086070470000680000202DE9F04116
:10229000044600680D46012610F0010F4CD1296953
:1022A000A868EA69084369691143084321682B4A11
:1022B000114008432060E868616821F440510143FF
:1022C0006160A869A16821F440710143A1602448BC
:1022D000844201D1032008E02248844201D10C202D
:1022E00003E02148844203D13020FFF749FF05E095
:1022F0001E48844219D1C020FFF714FFA8B16968B5
:1023000099B12A680026EB690B2A0ED8184FD2B271
:10231000B3F5004F57F82220B0FBF2F00FD000EBDE
:102320005100B0FBF1F080B2E0602888E16A80B231
:1023300021F00F010143E1623046BDE8F081400029
:1023400000EB5100B0FBF1F081B24FF6F07201EA00
:102350000200C1F342010843E6E70000F369FFEF22
:10236000003801400044004000480040004C00405C
:10237000C8750008704710B50420FFF707FD01205D
:10238000FFF704FD00F05AFE00220A2100F0E4FBF2
:1023900001460B2000F062FE0B2000F035FE00F03D
:1023A0004DFE00220A2100F0D7FB01460C2000F070
:1023B00055FE0C2000F028FE00F040FE00220A210D
:1023C00000F0CAFB01460D2000F048FE0D2000F091
:1023D0001BFE00F033FE00220A2100F0BDFB014687
:1023E0000F2000F03BFEBDE810400F2000F00CBEB7
:1023F000114810B50F490160002141608160C16042
:10240000017441748174012202234261C0E90623F0
:10241000C0E908328262C262C0E90C218163C163F3
:10242000FEF77AFE002803D0BDE81040FEF7B4BDE9
:1024300010BD0000006400405406002010B5074A9B
:102440000021074803F084F9064C044A002120606B
:102450002432054803F07CF9606010BD6075000807
:10246000254D00081800002019490008114808B53A
:10247000C16C41F00401C164C16C01F00401009120
:10248000C16C41F02001C164C16C01F020010091D8
:10249000C16C41F00101C164C16C01F00101009106
:1024A000C16C41F00201C164C06C00F002000090F8
:1024B00008BD0000001002402DE9F0418EB01C2143
:1024C00006A8FDF75DFF18216846FDF759FF44484F
:1024D000C16D41F00101C165C06D00F001000D90BA
:1024E0000120FFF75FFC0420009002260025CDE9C3
:1024F000016501270C24CDE904744FF0904869462A
:1025000040460395FFF7F8FC08200090CDE90165EF
:10251000CDE90474694640460395FFF7EDFC314E62
:10252000222201213046FFF7CBFC00220121304658
:10253000FFF782FC002201213046FFF767FC0022F2
:1025400001213046FFF7A0FC002201213046FFF7B1
:10255000ADFC802201213046FFF782FC00220121E0
:102560003046FFF7BFFC002201213046FFF782FC16
:1025700000F06CFD00220C2100F007FB01465B20FF
:1025800000F07CFD5B2000F04CFD4FF4E130CDE924
:102590000650CDE90A54144C0895099506A9204621
:1025A0000C95FFF745FDA06865F35F70A060A0681B
:1025B00020F06060A060206820F00050206020685B
:1025C00040F001002060E069C0F340500028FAD0DC
:1025D000E069C0F380500028F5D00EB0BDE8F0816E
:1025E0000010024000000240008000400D4810B57D
:1025F0000B49016000217F22C0E90112FF22C0E9DE
:1026000003214FF080424161C0E906120162FFF7E9
:102610005BF9002803D0BDE81040FEF7BDBC10BD3B
:1026200000280040B80D00203EB50024104800945A
:1026300001940E490294016044F26721C0E901143B
:1026400042F20F71C16080218161FFF706FA08B183
:10265000FEF7A2FC0094694605480294FFF7AEF924
:10266000002801D0FEF798FC3EBD0000001000409D
:10267000E00D0020F0B58FB0202106A8FDF780FE08
:1026800018216846FDF77CFE4FF40020FFF796FB0B
:102690000420FFF787FB4FF480600090022600259E
:1026A000CDE9016505243D4FCDE90454694638461E
:1026B0000395FFF721FCB0020090CDE901650120F0
:1026C000CDE90404694603953846FFF715FC344C00
:1026D0001E2200212046FFF7F3FB00221146204670
:1026E000FFF7AAFB002211462046FFF78FFB0022CE
:1026F00011462046FFF7C8FB002211462046FFF78F
:10270000D5FB802200212046FFF7AAFB00221146BC
:102710002046FFF7E7FB002211462046FFF7AAFB01
:1027200000F094FC00220D2100F02FFA0146342025
:1027300000F0A4FC342000F074FC4FF4E130CDE94B
:1027400006500C20CDE90A50164C089509950C95B9
:1027500006A920460D95FFF799FDA06865F35F7007
:10276000A060A06820F06060A060606820F49040E5
:102770006060A06820F02A00A060206840F001009E
:102780002060E069C0F340500028FAD0E069C0F34F
:1027900080500028F5D00FB0F0BD000000080048C0
:1027A00000000240004C0040F0B58FB0202106A888
:1027B000FDF7E6FD18216846FDF7E2FD5A48016E77
:1027C00041F480410166006E00F480400E900420C8
:1027D000FFF7E8FA1020009002250024CDE901540B
:1027E0000726524FCDE90446694638460394FFF761
:1027F00083FB20200090CDE9015401200596CDE90E
:10280000034069463846FFF777FB494D18220221FD
:102810002846FFF755FB002202212846FFF70CFB54
:10282000002202212846FFF7F1FA00220221284661
:10283000FFF72AFB002202212846FFF737FB802200
:1028400002212846FFF70CFB002202212846FFF751
:1028500049FB002202212846FFF70CFB00F0F6FBA3
:1028600000220F2100F091F90146252000F006FC1E
:10287000252000F0D6FB4FF41650CDE906400C2081
:10288000CDE90A40089409940C940D94294C06A9AA
:102890002046FFF7FBFCA168052060F35F71A16093
:1028A000A06820F06060A060206820F000502060E8
:1028B000606820F490406060A06820F02A00A0606A
:1028C000A06840F04000A060206840F01000206048
:1028D000194881786958807841F008012950154AD3
:1028E000022124322846FFF7D9FA144A0221284649
:1028F000FFF7AEFA4FF4407202212846FFF790FA34
:1029000002212846FFF770FA206840F0010020609D
:10291000E069C0F340500028FAD0E069C0F380506D
:102920000028F5D00FB0F0BD0010024000080048AC
:102930000000024000380140A8750008B8060020D9
:10294000F0B58FB0202106A8FDF71AFD18216846C2
:10295000FDF716FD4FF48020FFF730FA0220FFF755
:1029600021FA4FF48060009002260025CDE9016530
:102970000724744FCDE90454694638460395FFF7A0
:10298000BBFAB0020090CDE901650120CDE9040455
:10299000694603953846FFF7AFFA6B4E1C220421B7
:1029A0003046FFF78DFA002204213046FFF744FA43
:1029B000002204213046FFF729FA00220421304684
:1029C000FFF762FA002204213046FFF76FFA8022F7
:1029D00004213046FFF744FA002204213046FFF775
:1029E00081FA002204213046FFF744FA00F02EFB62
:1029F00000220E2100F0C9F80146272000F03EFB1E
:102A0000272000F00EFB4FF4E130CDE906500C20FA
:102A1000CDE90A504D4C089509950C9506A920461C
:102A20000D95FFF733FCA06865F35F70A060A068A8
:102A300020F06060A060206820F000502060606896
:102A400020F490406060A06820F02A00A060A06898
:102A500040F04000A060A06820F48060A060206882
:102A600020F020002060206820F010002060206806
:102A700020F020002060206820F0400020602068C6
:102A800020F080002060206820F080002060206816
:102A900020F480702060206820F48040206020684E
:102AA00020F000602060206820F0804020602068D6
:102AB00020F000402060606820F040006060A06866
:102AC00020F40000A060A06820F08070A060A068E2
:102AD00020F08050A060606840F4000060602068D2
:102AE00040F080602060606900F07F4040F0C800E6
:102AF0006061A06840F48050A060144A0421243230
:102B00003046FFF7CBF9124A04213046FFF7A0F90F
:102B1000621504213046FFF783F904213046FFF7A0
:102B200063F9206840F001002060E069C0F3405084
:102B30000028FAD0E069C0F380500028F5D00FB02B
:102B4000F0BD0000000400480000024000480040C2
:102B5000B8090020FEE7704730B500F00703C3F165
:102B60000704042C00D90424181D072801D20023CF
:102B700000E0DB1E012505FA04F0401E08409840E5
:102B80009D406D1E1540284330BD30B500F0070351
:102B9000C3F10704042C00D90424181D072801D20E
:102BA000002300E0DB1E012505FA04F0401E08406A
:102BB00098409D406D1E1540284330BD05498968E9
:102BC000054A01F0F0010909515C01F01F01C840FC
:102BD0007047000000100240F87500080549896838
:102BE000054A01F4E06102EB1121097801F01F01AF
:102BF000C8407047001002400876000805498968FF
:102C0000054A01F4605102EBD121097801F01F015E
:102C1000C8407047001002400876000807488068E6
:102C200000F00C010648042906D0082903D00C291D
:102C300002D100F009B803487047000000100240BC
:102C40000024F40000366E010F49C86800F003024A
:102C50000E48022A02D0032A00D10D48CA68C2F3E6
:102C600006224243C868C96800F0F003012000EB67
:102C70001313B2FBF3F201F0C06100EB51604000AE
:102C8000B2FBF0F070470000001002400024F40096
:102C900000366E012DE9F047104C81460025206872
:102CA000400618D4206840F080002060FEF718FD30
:102CB00006464FF47A78032708E000BFFEF710FDC0
:102CC000801B404502D9032589F8257020684006FD
:102CD00001D4032DF2D12846BDE8F0870C2800402E
:102CE0002DE9F041064613480025016821F08001D6
:102CF0000160104C0C3420684FF00307800607D4A5
:102D00003046FEF73BFE90B186F8257003250EE0B5
:102D1000206820F0200020603046FEF72FFE10B122
:102D200086F825700325206840F0200020602846A2
:102D3000BDE8F0810C28004010B5502080F31188C8
:102D4000BFF34F8FBFF36F8F04F0A2F818B104499F
:102D50004FF080500860002080F3118810BD000003
:102D600004ED00E0554810B5016821F00F0141F075
:102D700004010160016801F00F010429FAD15048F3
:102D8000D0F8801021F48071C0F880104D4C21687B
:102D900041F4807121602168C1F380210029FAD0BB
:102DA000616821F0FE4141F080416160016841F4B9
:102DB00080710160D4F8900040F48030C4F8900035
:102DC000D4F8900020F48030C4F89000D4F890003B
:102DD00020F01800C4F89000D4F8900040F00100F2
:102DE000C4F89000D4F89000C0F340000028F9D057
:102DF000E16845F23250344A11400843E060E0682F
:102E000040F08070E060206840F0807020602068B2
:102E1000C0F340600028FAD0A06840F00300A06032
:102E20008020FFF717FAA06800F00C000C28FAD1F8
:102E30002648016841F0807101602548016841F031
:102E4000010101600021416041686429FCD3002038
:102E5000FFF700FAA06820F4E060A060A06820F40A
:102E60006050A0601B48FFF70BFA0020FEF756FCED
:102E700008B1FEF791F854F8900F20F4407040F438
:102E8000807044F80809A06840F40040A060206801
:102E900020F0407040F0007020604FF44030FFF7A9
:102EA000E3F9206820F4406020604FF44010FFF701
:102EB000DBF9206820F0C000206010BD0020024037
:102EC00000700040001002400C80FFF9FCED00E0B3
:102ED000001000E080FE210A0548016841F47001FD
:102EE000016003494FF000608039086070470000BE
:102EF00088ED00E00148FEF73CBE00002C0E0020EB
:102F0000704700002DE9F0430268234B234D244E07
:102F1000244C4FF08049984207D0484505D0A8423C
:102F200003D0B04201D0A04203D122F070074A681A
:102F30003A431D4FDFF874C0DFF8748098420DD01B
:102F400048450BD0A84209D0B04207D0A04205D0D6
:102F5000B84203D0604501D0404503D122F440750A
:102F6000CA682A434D6922F080022A4302608A68B7
:102F7000C2620A688262984207D0A04205D0B84275
:102F800003D0604501D0404501D1096901630121A9
:102F90004161BDE8F0830000002C014000040040C6
:102FA000000800400034014000400140004401405E
:102FB00000480140704701F071BF01F029BDFEE7F4
:102FC0000FB4054B10B503A9044A029800F07EF92E
:102FD00010BC5DF814FB0000FD4A0008E40000206E
:102FE0000FB4084B10B504A902AA039800F06EF9BB
:102FF000044602A9002000F000FD204610BC5DF848
:1030000014FB0000FB390008002809DB00F01F0258
:10301000012191404009800000F1E020C0F800113A
:103020007047002809DB00F01F0201219140400990
:10303000800000F1E020C0F80011704702480068ED
:10304000C0F30220704700000CED00E00248006869
:10305000C0F30220704700000CED00E00907090EE4
:10306000002804DB00F1E02080F80014704700F035
:103070000F0000F1E02080F8141D70470907090EC9
:10308000002804DB00F1E02080F80014704700F015
:103090000F0000F1E02080F8141D70470907090EA9
:1030A000002804DB00F1E02080F80014704700F0F5
:1030B0000F0000F1E02080F8141D704700487047B1
:1030C000E80000200000000030B583B0044600F0A6
:1030D00017F89FED090B05468DED000B00222146E8
:1030E0006846FDF738FE284600F020F89DED000BFD
:1030F00003B030BD00000000000000000000000030
:103100000148006870470000E800002002E008C89D
:10311000121F08C1002AFAD170477047002001E051
:1031200001C1121F002AFBD170470000014908604D
:1031300070470000E80000202DE9FF5F82B0002109
:10314000DDE90430020DDDF840B0034318D044F649
:103150001050A2F2FF3242431514119801281FD0DB
:10316000A5EB0B00401C5FEA000A4FF000064E4F33
:10317000DFF83891B046504615D5CAF1000413E087
:10318000119801244AA3012801D16FEA0B0102988A
:10319000119AC0E90031C0E9024206B0BDE8F09FD3
:1031A000CBF10000DFE704460021404A491842EB1A
:1031B0000450CDE9001012E0E00707D032463B464C
:1031C00040464946FDF7BDFB8046894632463B46B0
:1031D00010461946FDF7B5FB06460F466410002C55
:1031E000EAD1DDE90401DDE90023BAF1000F06DAD6
:1031F000FDF7A7FB42464B46FDF7A3FB05E0FDF7B5
:1032000012FC42464B46FDF70EFC04460E460022D9
:10321000284BFDF79BFC03D84FF0FF30014607E039
:103220000022254B20463146FDF7E4FAFDF766FE05
:10323000102409E0002C0ADB0A220023FDF748F8DD
:10324000039B30321A55641E50EA0102F2D1641C0D
:10325000039AC4F111031444119A012A03D00122E4
:1032600008430DD10AE0084304D000204FF0110BB1
:10327000119072E7A3EB0B056D1E0DE05B4504DDBD
:103280004FF0000205F1010504E003DA4FF00002FF
:10329000A5F10105002AECD002981199C0E902318C
:1032A000C0E9004579E70000000014400000F03F4D
:1032B000300000000000F0430000E03F30380A28F2
:1032C00001D2012070470020704700002DE9FF4F18
:1032D00095B09B468946064600250FE2252877D102
:1032E00000242746F84A0121059400E0044316F81B
:1032F000013F203B01FA03F01042F7D130782A2831
:1033000011D06FF02F033078A0F13002092A16D8BF
:10331000059A44F0020402EB820203EB42021044DD
:10332000761C0590EFE759F8042B0592002A03DA82
:10333000504244F40054059044F00204761C307866
:103340002E2816D116F8010F44F004042A280DD0B7
:103350006FF02F023078A0F13003092B09D807EB6A
:10336000870302EB4303C718761CF3E759F8047B85
:10337000761C30786C280FD006DC4C2817D06828D3
:103380000DD06A2814D104E0742810D07A280FD107
:103390000DE044F400140AE044F4801401E044F425
:1033A00040147278824202D104F58014761C761C97
:1033B000307866280BD013DC582877D009DC002839
:1033C00075D04528F6D04628F4D047281AD19DE17B
:1033D00018E0632835D0642879D0652812D195E1AA
:1033E000702873D008DC6728F1D069286FD06E2868
:1033F0000DD06F2806D1B5E073282CD0752875D074
:10340000782874D05A46179990476D1C75E1C4F31B
:103410000250022809D003280DD0D9F80010042842
:103420000DD00D6009F1040967E1D9F80010EA1721
:10343000C1E90052F6E7D9F800100D80F2E70D70EF
:10344000F0E719F8041B8DF8001000208DF801003A
:10345000EA46012003E059F804AB4FF0FF30610762
:103460004FF0000102D40DE008F101018846B94295
:103470000FDA8045F8DB1AF808100029F4D108E0CB
:1034800008F1010188468142FADB1AF80810002988
:10349000F6D105985B46A0EB080721463846179AF7
:1034A00000F094FA284400EB080507E04DE029E11C
:1034B0000DE01AF8010B5A4617999047B8F1010828
:1034C000F7D25B4621463846179A13E142E00A22BA
:1034D0000092C4F302524FF0000A022A08D059F8B1
:1034E00004CB032A4FEAEC710AD00DE029E02AE070
:1034F00009F1070121F00702F2E802C1914609E053
:103500000FFA8CFC4FEAEC71042A03D14FFA8CFCC1
:103510004FEAEC71002907DA0A460021DCF1000CC1
:1035200061EB02012D2202E0220504D52B228DF849
:103530000420012203E0E20701D02022F7E79046B1
:1035400059E00A2102E010220DE010214FF0000A9C
:1035500000910BE010224FF0000A44F00404082709
:10356000009203E008224FF0000A0092C4F30252D6
:10357000022A05D059F804CB0021032A08D009E01B
:1035800009F1070121F00702F2E802C1914605E0C6
:103590001FFA8CFC042A01D10CF0FF0C4FF000083C
:1035A000220728D5702806D0009B83F0100353EA29
:1035B0000A0305D00EE040228DF80420012208E025
:1035C0005CEA010206D030228DF804208DF8050057
:1035D00002229046009B83F0080353EA0A030AD1B3
:1035E0005CEA010201D1620705D530228DF8042082
:1035F0004FF001087F1E582804D034A003900EA875
:1036000002900DE036A0F9E753466046009AFCF7B9
:103610005FFE84460398825C0298401E029002700E
:103620005CEA0100F0D1029806A9081A00F1200A0C
:10363000600702D524F4803400E00127574502DDFD
:10364000A7EB0A0000E0002000EB0A0100900598BB
:103650004144401A0590E00306D45B462146179A80
:10366000059800F0B3F90544002706E001A85A4682
:10367000C05D179990476D1C7F1C4745F6DBE00342
:103680000CD55B462146179A059800F09FF9054432
:1036900004E030205A46179990476D1C0099481E47
:1036A00000900029F5DC08E0029802995A4600785B
:1036B000491C0291179990476D1CBAF10001AAF1BB
:1036C000010AF1DC65E100000928010030313233E4
:1036D000343536373839616263646566000000004E
:1036E0003031323334353637383941424344454638
:1036F0000000000000F058F90544761C30780028DE
:103700007FF4ECAD19B02846BDE8F08F620700D415
:10371000062709F1070222F0070CFCE80223E14624
:1037200003F000485FEA080C02D00FF2702C0DE0A5
:103730005FEA045C02D50FF2682C07E05FEAC47C04
:1037400002D00FF2602C01E0AFF2700C4FF0FF38A6
:1037500023F00043CDF850C065280CD006DC452886
:1037600009D046281DD047283DD13DE0662818D015
:1037700067287ED138E00021112F01DB112000E005
:10378000781CCDE9000106A90EA8FFF7D5FCDDE9FC
:103790000F010E9A03910021009207F1010A049192
:1037A0004DE04FF000400097CDE9011006A90EA8AA
:1037B000FFF7C2FCDDE90F0203920E9B1199002274
:1037C000DDF80CA00093049211B9791C00EB010AFA
:1037D000B7EB0A0004D4C0F1FF3007F1010A0490EE
:1037E000AAEB0700019044E0012F00DA0127002135
:1037F000112F01DD112000E03846CDE9000106A9B6
:103800000EA8FFF799FCDDE90F010E9A0391002144
:1038100004910092BA4621070CD40399514500DA6D
:103820008A46BAF1010F05DD009AAAF10101515C47
:10383000302908D0B84202DA10F1040F06DA01216B
:10384000CDE9011015E0AAF10101E9E7002805DC46
:10385000049901440491AAEB000102E0411C514586
:1038600000DD8A460499401A401C01904FF0004048
:103870000290200704D40198504501DBCDF8048064
:1038800000208DF84F0002980DF14F07B0F1004F66
:1038900025D02B200E9002984FF0020800280CDA59
:1038A000404202902D200E9007E00A210298FDF779
:1038B00081F93031029007F8011DB8F10001A8F13B
:1038C0000108F2DC02980028EFD1791E0E980870EA
:1038D000307800F0200040F0450007F8020D12A8F3
:1038E000C01B00F107081498007800B1012000EB1C
:1038F0000A01019801EBE07105984144401A401E0D
:103900000590E00306D45B462146179A059800F01F
:103910005DF805441498007818B15A4617999047F5
:103920006D1CE00324D55B462146179A059800F0EC
:103930004DF805441CE00498002807DBDDE903018D
:10394000884203DD0098405C179901E01799302008
:103950005A469047049805F10105401C04900198CF
:10396000401E019004D12E205A46179990476D1C95
:10397000BAF10001AAF1010ADDDC05E017F8010B3C
:103980005A46179990476D1CB8F10001A8F101083B
:10399000F4DC5B462146179A0598ABE62D00000043
:1039A0002B000000200000002DE9F0410446002516
:1039B0001E461746880404D405E039462020B04747
:1039C0006D1C641EF9D52846BDE8F0812DE9F04153
:1039D000044600251E469046C80301D5302700E066
:1039E0002027880404D505E041463846B0476D1CC1
:1039F000641EF9D52846BDE8F0810A68531C0B60A7
:103A00001070704710B504A0FFF7DAFA09A002F0B1
:103A1000E1FB002010BD000073656E6420636F6DD4
:103A20006D616E642041542B51494143543D310A2C
:103A30000000000041542B51494143543D310D0ACF
:103A40000000000010B5044608A101F0AFFA30B143
:103A500007A1204601F0AAFA18B1022010BD0120EA
:103A600010BD05A0FFF7ACFA042010BD4F4B0000BD
:103A7000514941435400000051494143542D2D0AFE
:103A80000000000010B504A0FFF79AFA07A002F0AA
:103A9000A1FB002010BD000073656E6420636F6D94
:103AA0006D616E642061740A0000000041540D0ACB
:103AB0000000000010B504A101F078FA08B102205E
:103AC00010BD012010BD00004F4B000010B504A038
:103AD000FFF776FA08A002F07DFB002010BD000081
:103AE00073656E6420636F6D6D616E642041542B4D
:103AF00043475245473F0A0041542B4347524547ED
:103B00003F0D0A0010B504A101F050FA08B10220DF
:103B100010BD012010BD0000302C310010B504A0F4
:103B2000FFF74EFA08A002F055FB002010BD000080
:103B300073656E6420636F6D6D616E642041542BFC
:103B4000435245473F0A000041542B435245473FEB
:103B50000D0A000010B504A101F028FA08B10220F6
:103B600010BD012010BD0000302C310010B504A0A4
:103B7000FFF726FA08A002F02DFB002010BD000080
:103B800073656E6420636F6D6D616E6420554E4980
:103B90004E45540A0000000041542B5149435347FD
:103BA000503D312C312C22554E494E4554222C2269
:103BB000222C22222C310D0A0000000010B50446F0
:103BC0000BA101F0F3F948B10AA1204601F0EEF98A
:103BD00048B10BA0FFF7F4F9022010BD0DA0FFF7CC
:103BE000EFF9012010BD10A0FFF7EAF9042010BD85
:103BF0004F4B000041542B5149435347503D310036
:103C000061745F637367705F616374696F6E3220A4
:103C1000660A000061745F637367705F6163746953
:103C20006F6E3220730A000061745F637367705FA8
:103C3000616374696F6E3220610A000010B504A0E0
:103C4000FFF7BEF90BA002F0C5FA002010BD00007E
:103C500073656E6420636F6D6D616E642041542BDB
:103C6000514854545043464720636F6E74657874CE
:103C70000A00000041542B51485454504346473DDC
:103C800022636F6E746578746964222C310D0A00AA
:103C900010B504A101F08AF908B1022010BD052079
:103CA00010BD00004F4B000010B504A0FFF788F9CD
:103CB0000BA002F08FFA002010BD000073656E6447
:103CC00020636F6D6D616E642041542B51485454D4
:103CD00050434647206865616465720A0000000031
:103CE00041542B51485454504346473D227265710C
:103CF00075657374686561646572222C310D0A0004
:103D000010B504A101F052F908B1022010BD012044
:103D100010BD00004F4B000010B504A0FFF750F994
:103D200006A002F057FA002010BD000073656E6413
:103D30002067657420646174610A000041542B514E
:103D4000485454504745543D38300D0A0000000097
:103D500010B504A101F02AF908B1022010BD01201C
:103D600010BD00003230300010B504A0FFF728F974
:103D700006A002F02FFA002010BD000073656E64EB
:103D80002067657420646174610A000041542B51FE
:103D9000485454504745543D38300D0A0000000047
:103DA00010B504A101F002F908B1022010BD0120F4
:103DB00010BD00003230300010B506A0FFF700F94A
:103DC0004FF47A70FDF796F905A002F003FA00208F
:103DD00010BD000073656E642067657420760A006C
:103DE00041542B51485454504745543D38300D0AE6
:103DF0000000000010B504A101F0D8F808B10220BD
:103E000010BD012010BD00003230300070B58CB004
:103E10001EA0FFF7D5F800F0CFFE06464068FCF77D
:103E200082FE04460D463068FCF77DFE41EC100B27
:103E30001DA153EC102B2A48CDE90045FFF7D0F81F
:103E40002748FCF7D0FA044600F064FE24490094A9
:103E5000CDE9010123482549036823480268244825
:103E6000FFF7BEF82248FCF7BEFA0446024621A13D
:103E700003A8FFF7B5F803A802F0ACF9214623A088
:103E8000FFF79EF80CB0002070BD000073656E64F3
:103E900020636F6D6D616E642041542B5148545402
:103EA00050504F5354310A007B226C6F6E67697417
:103EB000756465223A2225302E3466222C226C61EC
:103EC000746974756465223A2225302E3466222C7A
:103ED00022646961675F696E666F223A7B7D0000CC
:103EE0001E13002004000020380000200078000885
:103EF0001E11002041542B5148545450504F5354DC
:103F00003D25642C38302C38300D0A006C656E3D30
:103F100025640A0010B504A101F048F808B1022098
:103F200010BD012010BD0000434F4E4E45435400CC
:103F300000B58FB013A0FFF743F81948D0E902127B
:103F4000CDE90012D0E9002316491748FFF748F8D9
:103F50001548FCF748FA03461348009013481449E3
:103F600002681448FFF73CF81248FCF73CFA024696
:103F700011A102A8FFF734F802A802F02BF90FB044
:103F8000002000BD73656E6420636F6D6D616E64AB
:103F90002041542B5148545450504F53540A000060
:103FA00028000020947700082E1000200400002034
:103FB0002C770008020F002041542B5148545450D4
:103FC000504F53543D25642C38302C38300D0A00A6
:103FD00010B504A100F0EAFF08B1022010BD0120D5
:103FE00010BD0000434F4E4E4543540010B504A091
:103FF000FEF7E6FF064802F0EDF8002010BD0000D5
:1040000073656E6420706F737420646174610A005C
:10401000020F002010B504460AA100F0C7FF28B126
:104020000BA1204600F0C2FF48B104E009A12046E0
:1040300000F0BCFF08B1022010BD012010BD04201B
:1040400010BD00005148545450504F5354000000CC
:104050004F4B00003230300010B5064906A0FEF785
:10406000AFFF6420FDF746F8024802F0B3F80020E5
:1040700010BD00001E11002073656E642075706C09
:104080006F61642025730A0010B504460EA100F08C
:104090008DFF28B10FA1204600F088FF78B104E021
:1040A0000DA1204600F082FF20B10CA0FEF788FF92
:1040B000022010BD0DA0FEF783FF012010BD10A04F
:1040C000FEF77EFF042010BD5148545450504F530A
:1040D000540000004F4B00003230310061637469BE
:1040E0006F6E32206661696C65640A006163746991
:1040F0006F6E3220737563636573730A000000008E
:10410000616374696F6E3220616761696E0A0000D5
:1041100000B589B00CA0FEF753FF124813A1036845
:10412000114802681848FEF75BFF1748FCF75BF977
:10413000024616A16846FEF753FF684602F04AF8A9
:1041400009B0002000BD000073656E6420636F6DD0
:104150006D616E642041542B514854545055524C5B
:10416000310A0000380000200000002025732F6174
:1041700070692F76312F62696B65732F75706C6F64
:1041800061642F2573000000DE10002041542B5184
:104190004854545055524C3D25642C38300D0A007B
:1041A00010B504A100F002FF08B1022010BD0120EB
:1041B00010BD0000434F4E4E4543540010B504A0BF
:1041C000FEF7FEFE074802F005F8002010BD0000D3
:1041D00073656E642075726C3120636F6E74656EEA
:1041E000740A0000DE10002010B504A100F0DEFE0D
:1041F00008B1022010BD012010BD00004F4B00008F
:1042000000B589B00BA0FEF7DBFE114811A10268D2
:104210001448FEF7E5FE1348FCF7E5F8024612A144
:104220006846FEF7DDFE684601F0D4FF09B00020C5
:1042300000BD000073656E6420636F6D6D616E6418
:104240002041542B514854545055524C0A00000000
:104250000000002025732F6F617574682F746F6BD9
:10426000656E0000AE10002041542B51485454504C
:1042700055524C3D25642C38300D0A0010B504A170
:1042800000F094FE08B1022010BD012010BD000016
:10429000434F4E4E4543540010B504A0FEF790FE28
:1042A000074801F097FF002010BD000073656E64A1
:1042B0002075726C20636F6E74656E740A00000066
:1042C000AE10002010B504A100F070FE08B102206D
:1042D00010BD012010BD00004F4B000010B504A020
:1042E000FEF76EFE084801F075FF002010BD0000CB
:1042F00073656E6420646F776E6C6F616420636FAA
:104300006E74656E740A0000DE10002010B504A102
:1043100000F04CFE08B1022010BD012010BD0000CD
:104320004F4B000010B504A0FEF74AFE074801F00D
:1043300051FF002010BD000073656E642066696C3B
:104340006520636F6E74656E740A0000DE100020D5
:1043500010B504A100F02AFE08B1022010BD012012
:1043600010BD00004F4B000000B589B00DA0FEF756
:1043700027FE00F0D3FC0090134815A103681348F2
:1043800002681F48FEF72CFE1D48FCF72CF8024679
:104390001CA101A8FEF724FE01A801F01BFF09B033
:1043A000002000BD73656E6420636F6D6D616E6487
:1043B0002041542B514854545055524C444F574E61
:1043C0004C4F41440A00000008000020000000207B
:1043D00025732F6170692F76312F6170705F76655C
:1043E0007273696F6E732F75726C3F6E616D653D90
:1043F00025732676657273696F6E3D257300000024
:10440000DE10002041542B514854545055524C3D1D
:1044100025642C38300D0A0010B504A100F0C6FD4B
:1044200008B1022010BD012010BD0000434F4E4EC8
:104430004543540000B589B00BA0FEF7C1FD1248FA
:1044400012A102681B48FEF7CBFD1A48FBF7CBFF11
:10445000024619A16846FEF7C3FD684601F0BAFEA0
:1044600009B0002000BD000073656E6420636F6DAD
:104470006D616E642041542B514854545055524C38
:1044800042494E0A000000000000002025732F75ED
:10449000706C6F6164732F6170705F7665727369A1
:1044A0006F6E2F312F4E6577426F79322E686578A7
:1044B00000000000DE10002041542B51485454509D
:1044C00055524C3D25642C38300D0A0010B504A11E
:1044D00000F06CFD08B1022010BD012010BD0000ED
:1044E000434F4E4E4543540000B589B00CA0FEF733
:1044F00067FD144815A10368134802681D48FEF7BC
:104500006FFD1C48FBF76FFF02461BA16846FEF7D4
:1045100067FD684601F05EFE09B0002000BD0000A6
:1045200073656E6420636F6D6D616E642041542B02
:10453000514854545055524C5F56455253494F4E72
:104540000A000000080000200000002025732F61F1
:1045500070692F76312F6170705F76657273696F45
:104560006E732F6E65776573743F6E616D653D2563
:1045700073000000DE10002041542B514854545069
:1045800055524C3D25642C38300D0A0010B504A15D
:1045900000F00CFD08B1022010BD012010BD00008C
:1045A000434F4E4E4543540010B5044904A0FEF756
:1045B00007FD024801F00EFE002010BDDE100020B5
:1045C00075726C3D25730A0010B504A100F0EEFC75
:1045D00008B1022010BD012010BD00004F4B0000AB
:1045E00010B504A0FEF7ECFC08A001F0F3FD0020DC
:1045F00010BD000073656E6420636F6D6D616E6445
:104600002041542B4350494E3F0A000041542B4354
:1046100050494E3F0D0A000010B504A100F0C6FC41
:1046200008B1022010BD012010BD000052454144D8
:104630005900000010B504A0FEF7C2FC08A001F06C
:10464000C9FD002010BD000073656E6420636F6DAE
:104650006D616E642041542B51494143543F0A001F
:1046600041542B51494143543F0D0A001FB52221AB
:10467000FBF7AFFE040010D02221601CFBF7A9FE5F
:1046800058B1021B611C6846521EFBF796FE684635
:1046900001F0B0FD012004B010BD0220FBE70000D6
:1046A00010B505A0FEF78CFC6420FCF723FD08A0E4
:1046B00001F090FD002010BD73656E642076657278
:1046C00073696F6E207265616465720A0000000094
:1046D00041542B5148545450524541443D38300DBB
:1046E0000A00000010B5044605A100F05FFC28B9DF
:1046F000204600F017FA08B1012010BD022010BDBD
:10470000434F4E4E4543540010B505A0FEF758FCEC
:104710006420FCF7EFFC08A001F05CFD002010BD58
:1047200073656E642076657273696F6E2072656161
:104730006465720A0000000041542B5148545450E3
:104740005245414446494C453D225546533A4E65F3
:1047500077426F79322E686578222C2038300D0A26
:104760000000000010B504460AA100F01FFC30B1A3
:1047700009A1204600F01AFC30B1022010BD0AA0A9
:10478000FEF71EFC042010BD0AA0FEF719FC052050
:1047900010BD00004F4B0000514854545052454149
:1047A0004446494C45000000726561642066696CAE
:1047B000650A0000726561642066696C6520616746
:1047C00061696E0A0000000010B505A0FEF7F8FB55
:1047D0006420FCF78FFC08A001F0FCFC002010BD59
:1047E00073656E642076657273696F6E20726561A1
:1047F0006465720A0000000041542B514854545023
:10480000524541443D38300D0A00000010B50446C1
:1048100005A100F0CBFB28B9204600F035FA08B11D
:10482000052010BD022010BD434F4E4E454354009D
:1048300010B504A0FEF7C4FB09A001F0CBFC0020DA
:1048400010BD000073656E6420636F6D6D616E64F2
:1048500020726573756C74207265616465720A00FC
:1048600041542B5148545450524541443D38300D29
:104870000A00000010B5044607A100F097FB30B114
:1048800007A1204600F092FB08B1022010BD20468F
:1048900000F096F9052010BD434F4E4E454354009D
:1048A00051485454505245414400000010B505A0F1
:1048B000FEF786FB6420FCF71DFC09A001F08AFCD2
:1048C000002010BD73656E6420636F6D6D616E6452
:1048D0002068747470207265616465720A0000005B
:1048E00041542B5148545450524541443D38300DA9
:1048F0000A00000010B5044605A100F057FB28B9D6
:10490000204600F06FF908B1052010BD022010BD4F
:10491000434F4E4E4543540000F032FB002600E06A
:104920003EB900F0FBF80446C06800698047E068C3
:10493000876800213A46072000F0B2FE054601468E
:1049400023A0FEF73DFBA81C2AD0042DE8D0254962
:1049500025A0FEF735FBE068416922488847032817
:10496000DED0012827D004282DD005282DD060685E
:10497000401C6060E068C068FCF7BCFB1D4D6868C7
:1049800001F066FC8046286801F062FC054601F0F3
:1049900059FC014643462A4617A0FEF711FBBFE724
:1049A000E16860684968884202DA401C6060B7E7E5
:1049B00000F004FBB4E7E0680026C068FCF79AFB4F
:1049C00000F002FBDAE70126D8E700F015FBD5E797
:1049D0007761697420726573756C74203D2025645D
:1049E0000A000000B80B00206275666665723A2501
:1049F000730A0000180000206E756D626572323D0A
:104A0000256C642C20256C642C20256C640A000025
:104A100070B52A4CE069C0F3C02000284CD002F0E9
:104A20002FFA264D01461C352A6825A0FEF7C8FA44
:104A3000E0142062214814300268296823A0FEF7A0
:104A4000BFFA254D04212846FDF7D8F9C0F50070BE
:104A500084B204212846FDF7BDF9201FB0F5FE7F82
:104A600013D21E4E306880B11D49224601F50070F8
:104A7000FBF76DFC1B490020224608551AA0FEF7E3
:104A80009FFA0121306800F0C5FD0C4A0421243250
:104A90002846FDF703FA124A04212846FDF7D8F903
:104AA0004FF4007204212846FDF7BAF92846BDE804
:104AB00070400421FDF798B970BD00000048004027
:104AC000743A25642C25780A00000000723A257893
:104AD0002C2025780A000000000002401C00002065
:104AE000B8090020B80B002075333A25732C2061DB
:104AF00074206C656E3D25640A0000000449C2B252
:104B00008A62CA69C2F3C012002AFAD07047000054
:104B100000800040004870470C01002000487047AA
:104B2000EC00002070B5044613A0FEF749FA18A562
:104B300029462046FBF72FFC040017D02846FBF738
:104B400052FC20442221401CFBF743FC441C222140
:104B5000801CFBF73EFC021B21460F48FBF72DFC97
:104B60000D490EA0FEF72CFA012070BD0EA0FEF735
:104B700027FA002070BD00006765745F66696C6588
:104B80005F75726C5F6275666665720A0000000090
:104B90002275726C22000000820E002066696C652E
:104BA00075726C3A25730A006E6F7420666F756EAD
:104BB00064207B200A00000000487047200000208D
:104BC00010B502A0FEF7FCF9012010BD6765745F07
:104BD000726573756C745F66726F6D5F6275666621
:104BE00065720A0070B5044613A0FEF7E9F918A52E
:104BF00029462046FBF7CFFB040017D02846FBF7D9
:104C0000F2FB20442221401CFBF7E3FB441C222141
:104C1000801CFBF7DEFB021B21461148FBF7CDFB96
:104C20000F4910A0FEF7CCF9012070BD12A0FEF7CD
:104C3000C7F9002070BD00006765745F746F6B6515
:104C40006E5F66726F6D5F6275666665720A000000
:104C5000226163636573735F746F6B656E2200001E
:104C60000C0100206163636573735F746F6B656E25
:104C70003A25730A000000006E6F7420666F756E2F
:104C800064207B200A00000070B5044613A0FEF7E4
:104C900097F917A529462046FBF77DFB040017D09E
:104CA0002846FBF7A0FB20442221401CFBF791FB88
:104CB000441C2221801CFBF78CFB021B21460F4861
:104CC000FBF77BFB0D490EA0FEF77AF9012070BDC2
:104CD0000EA0FEF775F9002070BD00006765745FD7
:104CE00076657273696F6E5F6275666665720A00DB
:104CF0002276657273696F6E22000000780E0020C4
:104D000076657273696F6E3A25730A006E6F742050
:104D1000666F756E64207B200A00000000487047B3
:104D2000780E002094B02F4D4FF0FF363246002110
:104D3000082000F0B5FC2C492C48FBF769FB2CA19E
:104D40002A48FBF728FB040019D02BA1FBF723FB13
:104D5000071B394629A0FEF733F93A4621462B486E
:104D6000FBF72BFB2949684600F0FCF920B10599B7
:104D7000079801F095F902E025A0FEF721F92CA192
:104D80001A48FBF708FB04001BD01BA1FBF703FB31
:104D9000071B394628A0FEF713F91C483A4621465E
:104DA0006430FBF70AFB19496846643100F096F954
:104DB00020B125A00899FEF703F902E029A0FEF72B
:104DC000FFF8686801F044FA0746286801F040FAE5
:104DD000044601F037FA01463B46224629A0FEF779
:104DE000EFF8A3E718000020B80600208C0200208E
:104DF000244750524D4300000A000000726D6320AA
:104E00006C656E6774682025640A00008C050020BC
:104E1000247878524D432073656E74656E63652007
:104E20006973206E6F74207061727365640A00008C
:104E30002447504747410000676761206C656E67F3
:104E400074682025640A00002478784747413A2096
:104E5000666978207175616C6974793A2025640AF5
:104E6000000000002478784747412073656E746520
:104E70006E6365206973206E6F7420706172736554
:104E8000640A00006E756D626572313D256C642C9C
:104E900020256C642C20256C640000002DE9F04175
:104EA000274C2068C0F30010002847D0E069C0F309
:104EB0000010002842D010202062E069C0F3C0003A
:104EC00020B120A0FEF77CF808202062224E0221AB
:104ED0003046FCF77FFF02213046FCF78FFFC0F51C
:104EE000407084B221461DA0FEF76AF84FF4407767
:104EF0001D4DBC4201D2286850B11C490020085504
:104F00001BA02968FEF75CF80821286800F082FBE6
:104F10000B4A022124323046FCF7C0FF134A02211B
:104F20003046FCF795FF3A4602213046FCF778FF01
:104F30003046BDE8F0410221FCF756BFBDE8F081E4
:104F4000003801402D2D2D2D2D2D6F72652D2D2D0D
:104F50002D2D2D2D310A00000000024067707320B6
:104F60006C656E3D25640A0018000020B80600201C
:104F7000677073206964203D2025780A00000000D6
:104F8000014800F003B800006072000810B5054B3E
:104F90000549002298600A6001244A60C1E9024084
:104FA0005A6010BD0C000020EC00002010B5FBF78B
:104FB000F2F908B1002010BD012010BD0148FFF733
:104FC000E5BF00006072000809494868401C48605D
:104FD000896800EB4002074811F8323001EBC2014A
:104FE00003600123836000234360C16070470000B9
:104FF0000C000020EC0000201C4910B51C4A8868F9
:10500000904207D1087810B102F5F07029E01848F5
:10501000C03026E0174A904210D148780028F6D0D8
:10502000FFF77CFEFEF750F851EC100BFBF7A6FDE6
:1050300011498842EBDD0F48603012E00D496031C4
:10504000884203D1BDE8104001F05CB80849C03186
:10505000884202D09031884202D10648903800E060
:105060000348BDE81040FFF791BF00000C0000208E
:105070006072000840740008CDCCCC3DFCF73EFBCC
:10508000FDF770FE62B6FDF7F1F9FDF774F9FDF773
:10509000F1FAFDF711FAFDF787FBFDF7A9F9FDF726
:1050A0004FFCFDF7A3FAFDF7BFFA00F07BFAFDF71E
:1050B000C5F900F091FAFEE710B50446FBF73AF99E
:1050C0000068005D10F03E0F05D02C2C03D02A2C78
:1050D00001D0012010BD002010BD000030B591B0FE
:1050E0000D4600F14803044600F13C010DF1200C8F
:1050F0001A1F38308CE80F0004F12802111F0DF13F
:10510000100C04F13003081F8CE80F000FAB103AAD
:105110000EA910388DE80F0023460CAA0CA12846D2
:1051200000F06EF8002806D00DA10DF13200FBF75B
:1051300061F910B1002011B030BD20690E994843CB
:105140002061A0690F994843A0610120F3E70000A6
:1051500074546664666469696666636663665F0064
:105160004747410030B591B00D46044600F140027A
:1051700000F134010DF1180C0FAB2C308CE80F004E
:105180000DF1080C04F124030EAA04F11C010DA872
:105190008CE80F0008390CA8CDE9000123460AAAC3
:1051A00012A1284600F02CF8002806D013A10DF11A
:1051B0002A00FBF71FF910B1002011B030BD9DF897
:1051C000300041280FD00020207460690D994843B9
:1051D0006061E0690E994843E061206C0F99484393
:1051E00020640120E9E70120EEE7000074546366C3
:1051F000646664666644666400000000524D4300C5
:105200000FB42DE9F04F8FB04FF000090646C846A5
:105210000DF1680B3446B4E1491C19913B280ED0BE
:1052200054EA08015DD0642820D00BDC44286DD0FE
:1052300054286CD05F286BD0632852D10BE04FF01C
:1052400001089EE1662828D0692872D0732871D0A1
:105250007428F2D1BEE0002524B12078FFF72CFF9E
:1052600000B12578DBF800100D709FE00025002CC0
:105270000FD02078FFF720FF00280AD0207845289B
:1052800006D04E2804D0532804D05728D5D101E0A9
:10529000012588E04FF0FF3585E04FF0000A4FF020
:1052A000FF35CDF814A084BB53E027782B2F02D014
:1052B0002D2F07D00BE0BAF1000F08D1681C06D1E2
:1052C000012011E0BAF1000F01D1681C0AD0FBF7F0
:1052D00031F80068C05D202808D02E2F23D0202F61
:1052E00029D055E14FF0FF3082462CE0303F681C5A
:1052F00000D100256FF00040C11B0A2091FBF0F0A7
:10530000A84206DA059820BB42E11DE07BE0C1E03F
:105310002EE105EB850007EB4005059898B100EB01
:105320008000400003E005980028DAD101200590B4
:1053300009E02AE03DE0BAF1000FD2D1681CD0D1DB
:1053400005980028CDD1641C2078FFF7B5FE002811
:10535000ABD105995AEA010005F1010002D00028FD
:10536000BFD000E008B119B104E00025284600E0F4
:1053700001200590BAF1000F01D005FB0AF55BF89A
:10538000042B0598C2E90050F2E000255CB10A2226
:1053900004A92046FBF7F6F9054604980078FFF7C4
:1053A0008BFE00289DD1DBF800100D600BF1040B83
:1053B000DEE05BF8045B2CB909E000BF14F8010BD8
:1053C00005F8010B2078FFF777FE0028F6D10020C2
:1053D0002870CDE0002C7DD0207824287AD10025BB
:1053E00060194078FFF768FE002873D06D1C052D0A
:1053F000F6DB5BF8041BD4F80100086060790871E3
:1054000000204871B4E04FF0FF355BF8041B2F46D5
:10541000BA460291B4B32078FFF74EFE90B3002550
:10542000FAF788FF0068615D415C202952D16D1C4C
:10543000062DF8DB0020079021788DF81C1061788C
:105440008DF81D100890A1788DF82010E1788DF866
:105450002110099020798DF8240060798DF82500BD
:105460000A22002107A8FBF78DF907460A2200212E
:1054700008A8FBF787F905460A22002109A8FBF7CF
:1054800081F9824602980760029845600299C1F846
:1054900008A06DE04FF0FF355BF8041B0795AA46A6
:1054A00008950291ECB32078FFF706FEC8B30025FB
:1054B000FAF740FF07460068615D415C202967D12B
:1054C0006D1C062DF8DB00200C9021788DF8301033
:1054D000617800E05CE08DF831100D90A1788DF8D6
:1054E0003410E1788DF835100E9020798DF8380061
:1054F00060798DF839000A2200210CA8FBF742F9E7
:1055000082460A2200210DA8FBF73CF908900A22E6
:1055100000210EA8FBF736F90790A079E41D2E288C
:1055200000E018E04FF0000515D11D480A236FF088
:105530002F0C396808E000BFB0FBF3F005EB8505E0
:105540000CEB45051544641C22788F5C202F01D19B
:105550000128F1D845430299C1F800A002990898A2
:1055600048600298079981600298C56000E0761C47
:105570003078FFF7A1FD0028F9D130782C280DD024
:1055800000241999087800287FF446AE4FF00109ED
:105590000FB04846BDE8F00F5DF814FB761C39E605
:1055A00040420F00EFF3058068B9EFF3108209491C
:1055B000086812B9EFF311820AB1022803D028B1AA
:1055C0004FF0FF3070476FF0050070470120086012
:1055D00000207047BC00002010B5EFF3058070B9C3
:1055E000EFF310820A49086812B9EFF311820AB189
:1055F000022804D0012805D04FF0FF3010BD6FF015
:10560000050010BD0220086000F088FF002010BDDA
:10561000BC0000203EB5040001D0002903DA6FF081
:10562000030001901AE04FF0FF300190EFF3058086
:10563000B0B9EFF3108010B9EFF3118018B116482C
:10564000006802280CD000230122204601F012FB42
:10565000002201AB1146204601F00CFB01983EBD33
:10566000002502A800902B4601220295204601F059
:1056700071FB002201AB11462046009501F06AFB48
:1056800002980028EAD005494FF080500860BFF327
:105690004F8FBFF36F8FE1E7BC00002004ED00E007
:1056A0002DE9F84F894605464FEA0206EFF30580DB
:1056B00070B9EFF3108010B9EFF3118018B12348DF
:1056C0000068022804D0002D05DA6FF003041CE006
:1056D0006FF0050419E05FEA897002D54FF0000809
:1056E00000E0A8460024924601F0C4FB8346E71E72
:1056F00053466A464146002001F02EFC012807D09F
:105700000EB36FF001040028F2D12046BDE8F88FF7
:1057100000982C4004435FEAC9700BD035EA0400BE
:10572000F3D056B101F0A6FBA0EB0B00504506D913
:10573000002006E02542E8D1F3E73C46E5E7AAEB86
:1057400000008246D4E73C46DDE70000BC000020B4
:105750002DE9FF414FEA01034FF00005EFF305810A
:10576000039599BBEFF3108111B9EFF3118119B1D2
:105770001F490968022938D040B380261821002427
:105780004AB3176807B13C4697691FB139467F1E77
:10579000382F02D21779FF0703D0002004B0BDE8EC
:1057A000F081576907B1BE08D2F808C0BCF1000FFC
:1057B0000DD0D5685C2D18D312693AB137B18DE898
:1057C00006103246214601F02AFA03900DE0D76810
:1057D0005FB912694AB903AACDE90012B2B22146F3
:1057E00001F0F0F9012800D003950398D6E70000F6
:1057F000BC0000202DE9F041134C0F4605466669B8
:105800002068001D00F00AFD681C07D137B121682F
:10581000BDE8F0410D48091D00F05EBD206835442B
:10582000B5424560216805D2A068BDE8F041091D78
:1058300000F03ABD6068091D00F036FD206B85421E
:1058400000D22563BDE8F0816C0000209018002094
:105850002DE9F041054600F04BFD2D4C2069401C20
:10586000206120682B4F10B1E06930B32BE0256038
:105870002069012827D1002606EB860007EB80006F
:1058800000F004FD761C382EF6D3234800F0FEFC11
:105890002148143000F0FAFC1F48283000F0F6FCD4
:1058A0001D483C3000F0F2FC1B48503000F0EEFC8C
:1058B000194860601430A06005E02068E96AC06A99
:1058C000884200D82560E06A401CE0626864E86AAB
:1058D000A169884200D9A06100EB800007EB80003D
:1058E000291D00F0F9FC00F023FDE06900280CD030
:1058F0002068E96AC06A884207D208494FF08050A0
:105900000860BFF34F8FBFF36F8FBDE8F0810000D9
:105910006C000020E01300204018002004ED00E09F
:1059200038B500F0E5FC104CA068C8B90F4800F08D
:10593000ADFC0E48143000F0A9FC0C482060143077
:1059400060600A4B00202833009003F150021021C0
:105950000A2000F0DBFEA06010B105A100F066FD9A
:10596000BDE8384000F0E4BCA8000020A4180020E6
:10597000546D72510000000030B4026C0B46002AD6
:105980000BD0C1681144C1608468A14201D3016891
:10599000C16030BC1846FAF7DABC30BC70472DE95C
:1059A000F041856B174604460026026C82B1C7B1F0
:1059B000E068FAF7CCFCE168206C091AE160226823
:1059C000914202D2A168081AE060022F16D017E0B7
:1059D0002068A8B9A06801F005FB06460020A06079
:1059E0000EE06068FAF7B3FC216C60680844606000
:1059F000A168884204D32068606001E005B16D1E93
:105A00006D1CA5633046BDE8F08110B5044690F8E2
:105A1000590058B101280CD002280FD0502080F333
:105A20001188BFF34F8FBFF36F8FFEE7206B00F03D
:105A300093FC2046BDE8104000F08EBC10BD000075
:105A400010484FF48051420706D0C01D0D4920F088
:105A50000700411AC1F580510B4A00230144C2E9F5
:105A600000030839103A21F0070111604B600B6008
:105A70000B1AC0E9001393604FF000405360D060F0
:105A80007047000074200020D0000020144E154CF8
:105A9000A6F29C474FF08058DFF84C9012E000BF10
:105AA00000F026FCF068C568281D00F0B7FB2069EF
:105AB000401E2061E068401EE06000F039FC28468E
:105AC000FFF7A3FFE0680028EAD138680128F9D978
:105AD000C9F80080BFF34F8FBFF36F8FF2E700006C
